{
  "contractName": "Puzzle",
  "abi": [
    {
      "inputs": [
        {
          "internalType": "bytes32",
          "name": "_hash",
          "type": "bytes32"
        }
      ],
      "stateMutability": "payable",
      "type": "constructor",
      "payable": true
    },
    {
      "inputs": [
        {
          "internalType": "address",
          "name": "",
          "type": "address"
        }
      ],
      "name": "commitBlock",
      "outputs": [
        {
          "internalType": "uint256",
          "name": "",
          "type": "uint256"
        }
      ],
      "stateMutability": "view",
      "type": "function",
      "constant": true
    },
    {
      "inputs": [
        {
          "internalType": "address",
          "name": "",
          "type": "address"
        }
      ],
      "name": "commits",
      "outputs": [
        {
          "internalType": "bytes32",
          "name": "",
          "type": "bytes32"
        }
      ],
      "stateMutability": "view",
      "type": "function",
      "constant": true
    },
    {
      "inputs": [],
      "name": "hash",
      "outputs": [
        {
          "internalType": "bytes32",
          "name": "",
          "type": "bytes32"
        }
      ],
      "stateMutability": "view",
      "type": "function",
      "constant": true
    },
    {
      "inputs": [],
      "name": "winner",
      "outputs": [
        {
          "internalType": "address",
          "name": "",
          "type": "address"
        }
      ],
      "stateMutability": "view",
      "type": "function",
      "constant": true
    },
    {
      "stateMutability": "payable",
      "type": "receive",
      "payable": true
    },
    {
      "inputs": [
        {
          "internalType": "bytes32",
          "name": "_hash",
          "type": "bytes32"
        }
      ],
      "name": "commit",
      "outputs": [],
      "stateMutability": "nonpayable",
      "type": "function"
    },
    {
      "inputs": [
        {
          "internalType": "string",
          "name": "_solution",
          "type": "string"
        }
      ],
      "name": "reveal",
      "outputs": [],
      "stateMutability": "nonpayable",
      "type": "function"
    },
    {
      "inputs": [],
      "name": "withdraw",
      "outputs": [],
      "stateMutability": "nonpayable",
      "type": "function"
    },
    {
      "inputs": [
        {
          "internalType": "contract ERC20",
          "name": "token",
          "type": "address"
        }
      ],
      "name": "withdrawToken",
      "outputs": [],
      "stateMutability": "nonpayable",
      "type": "function"
    }
  ],
  "bytecode": "0x6080604052604051610adc380380610adc8339818101604052602081101561002657600080fd5b81019080805190602001909291905050508060008190555050610a8e8061004e6000396000f3fe60806040526004361061007f5760003560e01c80637b43a8e61161004e5780637b43a8e6146101fa578063894760691461025f578063dfbf53ae146102b0578063f14fcbc8146102f157610086565b806309bd5a601461008b57806323dd7f39146100b65780633ccfd60b1461011b5780634c2612471461013257610086565b3661008657005b600080fd5b34801561009757600080fd5b506100a061032c565b6040518082815260200191505060405180910390f35b3480156100c257600080fd5b50610105600480360360208110156100d957600080fd5b81019080803573ffffffffffffffffffffffffffffffffffffffff169060200190929190505050610332565b6040518082815260200191505060405180910390f35b34801561012757600080fd5b5061013061034a565b005b34801561013e57600080fd5b506101f86004803603602081101561015557600080fd5b810190808035906020019064010000000081111561017257600080fd5b82018360208201111561018457600080fd5b803590602001918460018302840111640100000000831117156101a657600080fd5b91908080601f016020809104026020016040519081016040528093929190818152602001838380828437600081840152601f19601f820116905080830192505050505050509192919290505050610456565b005b34801561020657600080fd5b506102496004803603602081101561021d57600080fd5b81019080803573ffffffffffffffffffffffffffffffffffffffff169060200190929190505050610779565b6040518082815260200191505060405180910390f35b34801561026b57600080fd5b506102ae6004803603602081101561028257600080fd5b81019080803573ffffffffffffffffffffffffffffffffffffffff169060200190929190505050610791565b005b3480156102bc57600080fd5b506102c56109a7565b604051808273ffffffffffffffffffffffffffffffffffffffff16815260200191505060405180910390f35b3480156102fd57600080fd5b5061032a6004803603602081101561031457600080fd5b81019080803590602001909291905050506109cd565b005b60005481565b60036020528060005260406000206000915090505481565b600160009054906101000a900473ffffffffffffffffffffffffffffffffffffffff1673ffffffffffffffffffffffffffffffffffffffff163373ffffffffffffffffffffffffffffffffffffffff161461040d576040517f08c379a000000000000000000000000000000000000000000000000000000000815260040180806020018281038252600c8152602001807f4e6f7420612077696e6e6572000000000000000000000000000000000000000081525060200191505060405180910390fd5b3373ffffffffffffffffffffffffffffffffffffffff166108fc479081150290604051600060405180830381858888f19350505050158015610453573d6000803e3d6000fd5b50565b6000816040516020018082805190602001908083835b6020831061048f578051825260208201915060208101905060208303925061046c565b6001836020036101000a0380198251168184511680821785525050505050509050019150506040516020818303038152906040528051906020012090506000816040516020018082815260200191505060405160208183030381529060405280519060200120905060003383604051602001808373ffffffffffffffffffffffffffffffffffffffff1660601b815260140182815260200192505050604051602081830303815290604052805190602001209050600073ffffffffffffffffffffffffffffffffffffffff16600160009054906101000a900473ffffffffffffffffffffffffffffffffffffffff1673ffffffffffffffffffffffffffffffffffffffff1614610607576040517f08c379a000000000000000000000000000000000000000000000000000000000815260040180806020018281038252600b8152602001807f416c726561647920776f6e00000000000000000000000000000000000000000081525060200191505060405180910390fd5b600054821461067e576040517f08c379a00000000000000000000000000000000000000000000000000000000081526004018080602001828103825260108152602001807f496e76616c696420736f6c7574696f6e0000000000000000000000000000000081525060200191505060405180910390fd5b600260003373ffffffffffffffffffffffffffffffffffffffff1673ffffffffffffffffffffffffffffffffffffffff168152602001908152602001600020548114610732576040517f08c379a000000000000000000000000000000000000000000000000000000000815260040180806020018281038252600e8152602001807f446964206e6f7420636f6d6d697400000000000000000000000000000000000081525060200191505060405180910390fd5b33600160006101000a81548173ffffffffffffffffffffffffffffffffffffffff021916908373ffffffffffffffffffffffffffffffffffffffff16021790555050505050565b60026020528060005260406000206000915090505481565b600160009054906101000a900473ffffffffffffffffffffffffffffffffffffffff1673ffffffffffffffffffffffffffffffffffffffff163373ffffffffffffffffffffffffffffffffffffffff1614610854576040517f08c379a000000000000000000000000000000000000000000000000000000000815260040180806020018281038252600c8152602001807f4e6f7420612077696e6e6572000000000000000000000000000000000000000081525060200191505060405180910390fd5b8073ffffffffffffffffffffffffffffffffffffffff1663a9059cbb338373ffffffffffffffffffffffffffffffffffffffff166370a08231306040518263ffffffff1660e01b8152600401808273ffffffffffffffffffffffffffffffffffffffff168152602001915050602060405180830381600087803b1580156108da57600080fd5b505af11580156108ee573d6000803e3d6000fd5b505050506040513d602081101561090457600080fd5b81019080805190602001909291905050506040518363ffffffff1660e01b8152600401808373ffffffffffffffffffffffffffffffffffffffff16815260200182815260200192505050602060405180830381600087803b15801561096857600080fd5b505af115801561097c573d6000803e3d6000fd5b505050506040513d602081101561099257600080fd5b81019080805190602001909291905050505050565b600160009054906101000a900473ffffffffffffffffffffffffffffffffffffffff1681565b80600260003373ffffffffffffffffffffffffffffffffffffffff1673ffffffffffffffffffffffffffffffffffffffff1681526020019081526020016000208190555043600360003373ffffffffffffffffffffffffffffffffffffffff1673ffffffffffffffffffffffffffffffffffffffff168152602001908152602001600020819055505056fea2646970667358221220e58fe33b9de13565a467216ab73f12415a273c6a729a58a442954344286a65ec64736f6c634300060c0033",
  "immutableReferences": {},
  "source": "// SPDX-License-Identifier: MIT\npragma solidity >=0.4.22 <0.8.0;\n\ninterface ERC20 {\n    function balanceOf(address account) external returns (uint256);\n\n    function transfer(address recipient, uint256 amount) external returns (bool);\n}\n\n// Adventure Awaits: find all 4 clues, solve the puzzle and claim the reward\n// #0xPoland #0xPolandHeist\ncontract Puzzle {\n    uint256 constant BLOCKS_TO_WAIT = 10;\n\n    bytes32 public hash;\n    address public winner;\n    mapping(address => bytes32) public commits;\n    mapping(address => uint256) public commitBlock;\n\n    constructor(bytes32 _hash) public payable {\n        hash = _hash;\n    }\n\n    function commit(bytes32 _hash) public {\n        commits[msg.sender] = _hash;\n        commitBlock[msg.sender] = block.number;\n    }\n\n    function reveal(string memory _solution) public {\n        bytes32 solutionHash = keccak256(abi.encodePacked(_solution));\n        bytes32 solutionDoubleHash = keccak256(abi.encodePacked(solutionHash));\n        bytes32 commitHash = keccak256(abi.encodePacked(msg.sender, solutionHash));\n        require(winner == address(0), 'Already won');\n        //require(block.number > commitBlock[msg.sender] + BLOCKS_TO_WAIT, 'No front-running');\n        require(solutionDoubleHash == hash, 'Invalid solution');\n        require(commitHash == commits[msg.sender], 'Did not commit');\n        winner = msg.sender;\n    }\n\n    function withdraw() public {\n        require(msg.sender == winner, 'Not a winner');\n        msg.sender.transfer(address(this).balance);\n    }\n\n    function withdrawToken(ERC20 token) public {\n        require(msg.sender == winner, 'Not a winner');\n        token.transfer(msg.sender, token.balanceOf(address(this)));\n    }\n\n    receive() external payable {}\n}",
  "sourcePath": "/Users/g/code/scratch/eth-run/contracts/Puzzle.sol",
  "compiler": {
    "name": "solc",
    "version": "0.6.12+commit.27d51765.Emscripten.clang"
  },
  "schemaVersion": "3.3.2",
  "updatedAt": "2020-11-18T02:40:38.467Z",
  "networkType": "ethereum",
  "devdoc": {
    "kind": "dev",
    "methods": {},
    "version": 1
  },
  "userdoc": {
    "kind": "user",
    "methods": {},
    "version": 1
  }
}